:100000000C942A000C9447000C9447000C94470071
:100010000C9447000C9447000C9447000C94470044
:100020000C9447000C9447000C9447000C94470034
:100030000C9447000C9447000C9447000C94470024
:100040000C9447000C9447000C9447000C94470014
:100050000C94470011241FBECFE5D8E0DEBFCDBF12
:1000600010E0A0E6B0E0EAE3F5E302C005900D92EF
:10007000AC38B107D9F710E0ACE8B0E001C01D9290
:10008000A639B107E1F70E9490180C949B1A0C94C2
:100090000000EF92FF920F931F937B018C0120E0F1
:1000A00030E040E05FE40E94F50388238CF0C80153
:1000B000B70120E030E040E05FE40E94C1010E940F
:1000C00055049B01AC01205030404040504806C0D0
:1000D000C801B7010E9455049B01AC01B901CA01D6
:1000E0001F910F91FF90EF900895A0E0B0E0EBE733
:1000F000F0E00C94641ADC012B01FA019C9192301F
:1001000008F439C1EB018881823008F433C194309E
:1001100069F4843009F02FC111969C91119789815F
:10012000981709F428C1ABE6B0E025C1843009F482
:1001300021C18230A9F4923009F01DC19A01AD01AC
:1001400088E0EA010990AE01E90109929E0181501F
:10015000C1F7E201898111969C918923818308C1AD
:10016000923009F407C112962D903C901397EB0141
:100170008A819B811496AD90BD90CD90DC901797AD
:10018000EC80FD800E811F819101281B390BB90184
:1001900037FF04C066277727621B730B6032710537
:1001A0000CF061C0121613066CF537014801062EDB
:1001B00004C096948794779467940A94D2F721E0C8
:1001C00030E040E050E004C0220F331F441F551FB1
:1001D0006A95D2F721503040404050402E213F21B7
:1001E00040235123211531054105510521F021E01E
:1001F00030E040E050E079018A01E628F72808293C
:1002000019293CC0232BD1F1260E371E350146019A
:10021000062E04C096948794779467940A94D2F734
:1002200021E030E040E050E004C0220F331F441FC3
:10023000551F6A95D2F721503040404050402A2146
:100240003B214C215D21211531054105510521F04E
:1002500021E030E040E050E059016A01A628B728CB
:10026000C828D9280BC0821593052CF01C01AA249C
:10027000BB24650103C0EE24FF24870111969C91E5
:10028000D20111968C91981709F445C0992339F041
:10029000A80197012A193B094C095D0906C0A6016E
:1002A00095012E193F09400B510B57FD08C01182D3
:1002B0003382228224833583468357831DC081E0A5
:1002C00081833382228288279927DC01821B930B4A
:1002D000A40BB50B84839583A683B7830DC0220F2F
:1002E000331F441F551F24833583468357838281E0
:1002F000938101979383828324813581468157813D
:10030000DA01C9010197A109B1098F5F9F4FAF4F72
:10031000BF4328F30BC0918333822282EA0CFB1C7B
:100320000C1D1D1DE482F5820683178383E0808304
:10033000248135814681578157FF1AC0C901AA27F8
:1003400097FDA095BA2F81709070A070B0705695EF
:10035000479537952795822B932BA42BB52B848318
:100360009583A683B7838281938101969383828349
:10037000DF0101C0D201CD01CDB7DEB7E2E10C94BF
:10038000801AA0E2B0E0E7ECF1E00C94701A698307
:100390007A838B839C832D833E834F835887E9E048
:1003A000EE2EF12CEC0EFD1ECE010196B7010E943F
:1003B0007E058E010F5E1F4FCE010596B8010E948B
:1003C0007E058A8991E089278A8BC701B801AE0131
:1003D000475E5F4F0E9475000E94A904A096E6E068
:1003E0000C948C1AA0E2B0E0E8EFF1E00C94701AE3
:1003F00069837A838B839C832D833E834F835887C5
:10040000F9E0EF2EF12CEC0EFD1ECE010196B701A6
:100410000E947E058E010F5E1F4FCE010596B8012A
:100420000E947E05C701B801AE01475E5F4F0E9482
:1004300075000E94A904A096E6E00C948C1AA0E234
:10044000B0E0E5E2F2E00C94641A69837A838B836E
:100450009C832D833E834F835887CE010196BE0136
:10046000675F7F4F0E947E05CE010596BE016F5EDD
:100470007F4F0E947E059985923088F0898982306D
:10048000C8F0943019F4823051F404C0843029F457
:10049000923081F48BE690E0C6C0923049F420E0BF
:1004A0009A858A89981321E02A87CE010996BBC0D4
:1004B000823049F420E09A858A89981321E02A8BBA
:1004C000CE014196B0C02D843E844F8458886D88FB
:1004D0007E888F88988CEE24FF248701AA24BB2471
:1004E000650140E050E060E070E0E0E0F0E0C10174
:1004F00081709070892BE9F0E60CF71C081D191D1E
:100500009A01AB012A0D3B1D4C1D5D1D80E090E062
:10051000A0E0B0E0E614F7040805190520F481E036
:1005200090E0A0E0B0E0BA01A901480F591F6A1F8E
:100530007B1FAA0CBB1CCC1CDD1C97FE08C081E0F5
:1005400090E0A0E0B0E0A82AB92ACA2ADB2A3196B6
:10055000E032F10549F0660C771C881C991C569412
:10056000479437942794C3CFFA85EA892B893C892D
:100570008B859C85280F391F2E5F3F4F17C0CA01FE
:1005800081709070892B61F016950795F794E79428
:1005900080E090E0A0E0B0E8E82AF92A0A2B1B2BC3
:1005A00076956795579547952F5F3F4F77FDE7CF36
:1005B0000CC0440F551F661F771F17FD4160EE0CDE
:1005C000FF1C001F111F21503040403090E05907A0
:1005D00090E0690790E4790760F32B8F3C8FDB0193
:1005E000CA018F779070A070B07080349105A1051A
:1005F000B10561F447FD0AC0E114F10401051105DC
:1006000029F0405C5F4F6F4F7F4F40781A8EFE1786
:1006100011F081E08A8F4D8F5E8F6F8F78A383E01A
:10062000898FCE0149960E94A904A096E2E10C941C
:10063000801AA8E1B0E0EFE1F3E00C946C1A698352
:100640007A838B839C832D833E834F835887B9E0C5
:10065000EB2EF12CEC0EFD1ECE010196B7010E948F
:100660007E058E010F5E1F4FCE010596B8010E94D8
:100670007E052985223008F47EC03989323010F495
:10068000B8017CC08A859A8989278A87243011F02D
:10069000223031F4231709F06EC06BE670E06EC0B3
:1006A000343039F41D861E861F86188A1C861B86E8
:1006B00004C0323021F484E08987B7015FC02B8504
:1006C0003C858B899C89281B390B3C872B87ED84C3
:1006D000FE840F851889AD88BE88CF88D88CEA142F
:1006E000FB040C051D0540F4EE0CFF1C001F111F40
:1006F000215030403C872B8720E030E040E050E044
:1007000080E090E0A0E0B0E460E070E0EA14FB0478
:100710000C051D0540F0282B392B4A2B5B2BEA18C2
:10072000FB080C091D09B695A79597958795EE0CC2
:10073000FF1C001F111F6F5F7F4F6F31710531F775
:10074000DA01C9018F779070A070B0708034910584
:10075000A105B10561F427FD0AC0E114F10401050A
:10076000110529F0205C3F4F4F4F5F4F20782D87B8
:100770003E874F87588BBE01675F7F4FCB010E943A
:10078000A9046896EAE00C94881AA8E1B0E0EBECC2
:10079000F3E00C94701A69837A838B839C832D8396
:1007A0003E834F83588789E0E82EF12CEC0EFD1E26
:1007B000CE010196B7010E947E058E010F5E1F4F8C
:1007C000CE010596B8010E947E058985823040F0F1
:1007D0008989823028F0C701B8010E94F60501C05E
:1007E0008FEF6896E6E00C948C1AA8E1B0E0EBEF8E
:1007F000F3E00C94701A69837A838B839C832D8336
:100800003E834F83588789E0E82EF12CEC0EFD1EC5
:10081000CE010196B7010E947E058E010F5E1F4F2B
:10082000CE010596B8010E947E058985823040F090
:100830008989823028F0C701B8010E94F60501C0FD
:100840008FEF6896E6E00C948C1AA8E1B0E0EBE23A
:10085000F4E00C94701A69837A838B839C832D83D4
:100860003E834F83588789E0E82EF12CEC0EFD1E65
:10087000CE010196B7010E947E058E010F5E1F4FCB
:10088000CE010596B8010E947E058985823040F030
:100890008989823028F0C701B8010E94F60501C09D
:1008A00081E06896E6E00C948C1AACE0B0E0EBE5F1
:1008B000F4E00C94741A69837A838B839C83CE0151
:1008C0000196BE016B5F7F4F0E947E058D81823055
:1008D00061F1823050F1843021F48E81882351F10E
:1008E0002EC02F81388537FD20C06E812F31310514
:1008F0001CF06623F9F023C08EE190E0821B930B7D
:1009000029853A854B855C8504C056954795379572
:1009100027958A95D2F76623B1F05095409530958A
:1009200021953F4F4F4F5F4F0EC020E030E040E039
:1009300050E009C02FEF3FEF4FEF5FE704C020E02A
:1009400030E040E050E8B901CA012C96E2E00C9496
:10095000901ADF92EF92FF920F931F93FC01E480B5
:10096000F58006811781D1808081823048F480E053
:1009700090E0A0E1B0E0E82AF92A0A2B1B2BA5C0E1
:10098000843009F49FC0823021F4EE24FF248701D3
:1009900005C0E114F1040105110519F4E0E0F0E0EF
:1009A00096C0628173819FEF623879070CF05BC05B
:1009B00022E83FEF261B370B2A3131052CF020E0CF
:1009C00030E040E050E02AC0B801A701022E04C088
:1009D00076956795579547950A94D2F781E090E010
:1009E000A0E0B0E004C0880F991FAA1FBB1F2A9582
:1009F000D2F70197A109B1098E219F21A023B1232C
:100A00000097A105B10521F081E090E0A0E0B0E001
:100A10009A01AB01282B392B4A2B5B2BDA01C90138
:100A20008F779070A070B07080349105A105B105EA
:100A300039F427FF09C0205C3F4F4F4F5F4F04C080
:100A4000215C3F4F4F4F5F4FE0E0F0E02030A0E0EF
:100A50003A07A0E04A07A0E45A0710F0E1E0F0E00E
:100A600079018A0127C06038710564F5FB01E158FE
:100A7000FF4FD801C7018F779070A070B07080349D
:100A80009105A105B10539F4E7FE0DC080E490E0C1
:100A9000A0E0B0E004C08FE390E0A0E0B0E0E80E9A
:100AA000F91E0A1F1B1F17FF05C016950795F7941F
:100AB000E794319687E016950795F794E7948A9521
:100AC000D1F705C0EE24FF248701EFEFF0E06E2F91
:100AD000679566276795902F9F77D794DD24D794E5
:100AE0008E2F8695492F462B582F5D29B701CA01B5
:100AF0001F910F91FF90EF90DF900895FC01DB01B3
:100B0000408151812281622F6F7770E0221F22275E
:100B1000221F9381892F880F822B282F30E0991F65
:100B20009927991F11969C93119721153105A9F5C5
:100B3000411551056105710511F482E037C082E865
:100B40009FEF13969C938E9312979A01AB0167E0E7
:100B5000220F331F441F551F6A95D1F783E08C93F2
:100B60000DC0220F331F441F551F12968D919C916B
:100B70001397019713969C938E931297203080E0E1
:100B8000380780E0480780E4580758F314962D93FF
:100B90003D934D935C93179708952F3F310579F45A
:100BA000411551056105710519F484E08C93089590
:100BB00064FF03C081E08C9312C01C9210C02F57B9
:100BC000304013963C932E93129783E08C9387E0EA
:100BD000440F551F661F771F8A95D1F770641496CE
:100BE0004D935D936D937C93179708951F93DC014C
:100BF000FB019C91923008F447C08081823008F458
:100C000043C0943051F411961C91843099F5818140
:100C1000682F70E0611B71093FC0843021F0923071
:100C200031F48230B9F18181882389F12DC0119688
:100C30001C9111978230F1F081811817D9F4129626
:100C40002D913C911397828193818217930794F0A1
:100C500028173907BCF014968D919D910D90BC9189
:100C6000A02D2481358146815781281739074A07ED
:100C70005B0718F4112341F00AC082179307A407F9
:100C8000B50740F4112319F061E070E005C06FEF83
:100C90007FEF02C060E070E0CB011F910895DF9309
:100CA000CF9300D000D000D0CDB7DEB78A836B835E
:100CB0004C8319828A81282F30E03E832D838D81D9
:100CC0009E818130910509F448C02D813E812230FA
:100CD00031052CF48D819E81009771F0D1C02D815A
:100CE0003E812230310509F469C08D819E818330B7
:100CF000910509F494C0C4C08C818823A9F4AAE3A7
:100D0000B0E0EAE3F0E08081482F8B81282F30E0CB
:100D100081E090E0022E02C0880F991F0A94E2F74A
:100D2000809584238C9316C08C81813099F4AAE33A
:100D3000B0E0EAE3F0E08081482F8B81282F30E09B
:100D400081E090E0022E02C0880F991F0A94E2F71A
:100D5000842B8C9381E0898395C08C818823A9F4AE
:100D6000A7E3B0E0E7E3F0E08081482F8B81282FF4
:100D700030E081E090E0022E02C0880F991F0A94B3
:100D8000E2F7809584238C9316C08C81813099F48E
:100D9000A7E3B0E0E7E3F0E08081482F8B81282FC4
:100DA00030E081E090E0022E02C0880F991F0A9483
:100DB000E2F7842B8C9381E0898364C08C81882343
:100DC000A9F4A4E3B0E0E4E3F0E08081482F8B8154
:100DD000282F30E081E090E0022E02C0880F991F9A
:100DE0000A94E2F7809584238C9316C08C8181301D
:100DF00099F4A4E3B0E0E4E3F0E08081482F8B8134
:100E0000282F30E081E090E0022E02C0880F991F69
:100E10000A94E2F7842B8C9381E0898333C08C8120
:100E20008823A9F4A1E3B0E0E1E3F0E08081482F5A
:100E30008B81282F30E081E090E0022E02C0880FE5
:100E4000991F0A94E2F7809584238C9316C08C81B5
:100E5000813099F4A1E3B0E0E1E3F0E08081482F34
:100E60008B81282F30E081E090E0022E02C0880FB5
:100E7000991F0A94E2F7842B8C9381E0898302C046
:100E800083E08983898126960FB6F894DEBF0FBE72
:100E9000CDBFCF91DF910895DF93CF9300D000D0E5
:100EA0000F92CDB7DEB78A836B8319828A81282F90
:100EB00030E03D832C838C819D8181309105E1F070
:100EC0002C813D81223031052CF48C819D8100974D
:100ED00061F027C02C813D8122303105A1F08C8149
:100EE0009D8183309105B1F01CC0EAE3F0E08B8175
:100EF000808381E0898317C0E7E3F0E08B81808302
:100F000081E0898310C0E4E3F0E08B81808381E09D
:100F1000898309C0E1E3F0E08B81808381E08983EC
:100F200002C083E0898389810F900F900F900F900A
:100F30000F90CF91DF910895DF93CF9300D000D031
:100F400000D0CDB7DEB78A836B834C8319828A8148
:100F5000282F30E03E832D838D819E818130910545
:100F600009F448C02D813E81223031052CF48D8159
:100F70009E81009771F0D1C02D813E8122303105D4
:100F800009F469C08D819E818330910509F494C074
:100F9000C4C08C818823A9F4ABE3B0E0EBE3F0E0BC
:100FA0008081482F8B81282F30E081E090E0022E55
:100FB00002C0880F991F0A94E2F7809584238C93CE
:100FC00016C08C81813099F4ABE3B0E0EBE3F0E044
:100FD0008081482F8B81282F30E081E090E0022E25
:100FE00002C0880F991F0A94E2F7842B8C9381E04A
:100FF000898395C08C818823A9F4A8E3B0E0E8E355
:10100000F0E08081482F8B81282F30E081E090E054
:10101000022E02C0880F991F0A94E2F7809584235C
:101020008C9316C08C81813099F4A8E3B0E0E8E39A
:10103000F0E08081482F8B81282F30E081E090E024
:10104000022E02C0880F991F0A94E2F7842B8C931A
:1010500081E0898364C08C818823A9F4A5E3B0E092
:10106000E5E3F0E08081482F8B81282F30E081E09C
:1010700090E0022E02C0880F991F0A94E2F7809533
:1010800084238C9316C08C81813099F4A5E3B0E061
:10109000E5E3F0E08081482F8B81282F30E081E06C
:1010A00090E0022E02C0880F991F0A94E2F7842B69
:1010B0008C9381E0898333C08C818823A9F4A2E3D7
:1010C000B0E0E2E3F0E08081482F8B81282F30E010
:1010D00081E090E0022E02C0880F991F0A94E2F787
:1010E000809584238C9316C08C81813099F4A2E37F
:1010F000B0E0E2E3F0E08081482F8B81282F30E0E0
:1011000081E090E0022E02C0880F991F0A94E2F756
:10111000842B8C9381E0898302C083E08983898159
:1011200026960FB6F894DEBF0FBECDBFCF91DF91EC
:101130000895DF93CF9300D000D00F92CDB7DEB7E4
:101140008A836B8319828A81282F30E03D832C8328
:101150008C819D818130910561F12C813D8122300E
:1011600031052CF48C819D81009769F064C02C813D
:101170003D812230310599F18C819D81833091052B
:1011800009F443C058C0ABE3B0E0EBE3F0E080818A
:10119000482F8B81282F30E081E090E0022E02C0A2
:1011A000880F991F0A94E2F784278C9381E0898342
:1011B00044C0A8E3B0E0E8E3F0E08081482F8B81F1
:1011C000282F30E081E090E0022E02C0880F991FA6
:1011D0000A94E2F784278C9381E089832EC0A5E3EB
:1011E000B0E0E5E3F0E08081482F8B81282F30E0EC
:1011F00081E090E0022E02C0880F991F0A94E2F766
:1012000084278C9381E0898318C0A2E3B0E0E2E3F5
:10121000F0E08081482F8B81282F30E081E090E042
:10122000022E02C0880F991F0A94E2F784278C933C
:1012300081E0898302C083E0898389810F900F90C8
:101240000F900F900F90CF91DF910895DF93CF9380
:1012500000D000D00F92CDB7DEB78A836B8319829E
:101260008A81282F30E03D832C838C819D818130C1
:101270009105E1F02C813D81223031052CF48C81E7
:101280009D81009761F027C02C813D81223031057E
:10129000A1F08C819D8183309105B1F01CC0EBE3FE
:1012A000F0E08B81808381E0898317C0E8E3F0E080
:1012B0008B81808381E0898310C0E5E3F0E08B813E
:1012C000808381E0898309C0E2E3F0E08B81808341
:1012D00081E0898302C083E0898389810F900F9028
:1012E0000F900F900F90CF91DF910895DF93CF93E0
:1012F00000D000D00F92CDB7DEB789836A83898191
:10130000282F30E03D832C834C815D814130510595
:1013100049F18C819D818230910534F42C813D818D
:101320002115310561F057C04C815D814230510576
:1013300061F18C819D8183309105D1F14CC0E9E34D
:10134000F0E08081282F30E08A81882F90E0A90189
:1013500002C0559547958A95E2F7CA01582F5170FA
:101360005B833AC0E6E3F0E08081282F30E08A8199
:10137000882F90E0A90102C0559547958A95E2F71C
:10138000CA01582F51705B8327C0E3E3F0E08081EE
:10139000282F30E08A81882F90E0A90102C055955E
:1013A00047958A95E2F7CA01582F51705B8314C0A4
:1013B000E0E3F0E08081282F30E08A81882F90E000
:1013C000A90102C0559547958A95E2F7CA01582FA1
:1013D00051705B8301C01B828B810F900F900F9027
:1013E0000F900F90CF91DF910895DF93CF9300D0AE
:1013F0000F92CDB7DEB78A836B8319828A816B81A6
:1014000041E00E944F0681E0898389810F900F900F
:101410000F90CF91DF910895DF93CF9300D00F927B
:10142000CDB7DEB78A836B8319828A816B8141E0F5
:101430000E949C0781E0898389810F900F900F9013
:10144000CF91DF910895DF93CF9300D00F92CDB766
:10145000DEB78A836B8319828A816B8140E00E94A8
:101460009C0781E0898389810F900F900F90CF9125
:10147000DF910895DF93CF9300D00F92CDB7DEB701
:101480008A836B8381E089838A816B810E949908BA
:1014900081E0898389810F900F900F90CF91DF9128
:1014A0000895DF93CF9300D0CDB7DEB78A8319823A
:1014B00083E066E040E00E949C0782E06A810E942F
:1014C00026090E94650D81E0898389810F900F9024
:1014D000CF91DF910895DF93CF9300D0CDB7DEB7E2
:1014E0008A83198283E066E041E00E949C0782E0E3
:1014F0006A810E9426090E94650D81E089838981A5
:101500000F900F90CF91DF910895DF93CF930F92BB
:10151000CDB7DEB719820E943B0D0E94660E0E9475
:10152000EE0E0E94C20F0E94961081E0898389818D
:101530000F90CF91DF910895DF93CF9300D0CDB777
:10154000DEB78A83198283E066E040E00E949C0750
:101550008A81982F92959F7082E0692F0E942609B8
:101560000E94650D8A81982F9F7082E0692F0E94EA
:1015700026090E94650D81E0898389810F900F9073
:10158000CF91DF910895DF93CF9300D0CDB7DEB731
:101590008A83198283E066E041E00E949C078A8189
:1015A000982F92959F7082E0692F0E9426090E94D1
:1015B000650D8A81982F9F7082E0692F0E9426090D
:1015C0000E94650D81E0898389810F900F90CF91F2
:1015D000DF910895DF93CF930F92CDB7DEB71982D5
:1015E0000E94500D0E941E110E9467120E94FC135F
:1015F0000E94911581E0898389810F90CF91DF91BD
:101600000895DF93CF9300D000D0CDB7DEB79C8391
:101610008B831A8219820EC08981282F30E08B813A
:101620009C81FC01E20FF31F80810E946B0A89817B
:101630008F5F89838981282F30E08B819C81FC0119
:10164000E20FF31F8081882339F781E08A838A8142
:101650000F900F900F900F90CF91DF910895DF932F
:10166000CF9300D000D0CDB7DEB78B836C831A82C6
:101670008C81882319F48B81898306C08C81813009
:1016800019F48B81805C8983898180580E94510A7A
:1016900081E08A838A810F900F900F900F90CF91F5
:1016A000DF910895EF92FF920F931F93DF93CF93F3
:1016B000CDB7DEB729970FB6F894DEBF0FBECDBF0A
:1016C0006E837F83888799871D8281E090E0A0E008
:1016D000B0E089839A83AB83BC838E819F81A88588
:1016E000B9850097A105B10521F480E30E946B0A3A
:1016F00050C08E819F81A885B985BB230CF049C05D
:101700008DE20E946B0A8E819F81A885B985B09574
:10171000A095909581959F4FAF4FBF4F8E839F832C
:10172000A887B98736C089819A81AB81BC812AE0BC
:1017300030E040E050E0BC01CD010E94E1197B01A6
:101740008C018E819F81A885B9852AE030E040E038
:1017500050E0BC01CD010E94131ADC01CB018E0DBB
:101760009F1DA01FB11F89839A83AB83BC838E8189
:101770009F81A885B9852AE030E040E050E0BC01B7
:10178000CD010E94131ADA01C9018E839F83A887B5
:10179000B9878E819F81A885B9850097A105B1057C
:1017A00011F623C089819A81AB81BC812AE030E0A7
:1017B00040E050E0BC01CD010E94131ADC01CB01D6
:1017C000805D0E946B0A89819A81AB81BC812AE08D
:1017D00030E040E050E0BC01CD010E94131ADA0174
:1017E000C90189839A83AB83BC8389819A81AB8148
:1017F000BC8181309105A105B105A1F681E08D8301
:101800008D8129960FB6F894DEBF0FBECDBFCF9164
:10181000DF911F910F91FF90EF900895DF93CF9389
:1018200000D000D0CDB7DEB79C838B831A8219829B
:101830000EC08981282F30E08B819C81FC01E20F52
:10184000F31F80810E94C30A89818F5F8983898108
:10185000282F30E08B819C81FC01E20FF31F8081F7
:10186000882339F781E08A838A810F900F900F9047
:101870000F90CF91DF910895DF93CF9300D000D0E8
:10188000CDB7DEB78B836C831A828C81882319F4E1
:101890008B81898306C08C81813019F48B81805CB7
:1018A0008983898180580E949C0A81E08A838A8189
:1018B0000F900F900F900F90CF91DF910895EF92BE
:1018C000FF920F931F93DF93CF93CDB7DEB7299786
:1018D0000FB6F894DEBF0FBECDBF6E837F838887BF
:1018E00099871D8281E090E0A0E0B0E089839A832F
:1018F000AB83BC838E819F81A885B9850097A105A4
:10190000B10521F480E30E94C30A50C08E819F81FB
:10191000A885B985BB230CF049C08DE20E94C30A9B
:101920008E819F81A885B985B095A0959095819568
:101930009F4FAF4FBF4F8E839F83A887B98736C015
:1019400089819A81AB81BC812AE030E040E050E09F
:10195000BC01CD010E94E1197B018C018E819F8128
:10196000A885B9852AE030E040E050E0BC01CD0117
:101970000E94131ADC01CB018E0D9F1DA01FB11F09
:1019800089839A83AB83BC838E819F81A885B98527
:101990002AE030E040E050E0BC01CD010E94131A83
:1019A000DA01C9018E839F83A887B9878E819F81C1
:1019B000A885B9850097A105B10511F623C08981D5
:1019C0009A81AB81BC812AE030E040E050E0BC016C
:1019D000CD010E94131ADC01CB01805D0E94C30A75
:1019E00089819A81AB81BC812AE030E040E050E0FF
:1019F000BC01CD010E94131ADA01C90189839A83BF
:101A0000AB83BC8389819A81AB81BC818130910594
:101A1000A105B105A1F681E08D838D8129960FB6D0
:101A2000F894DEBF0FBECDBFCF91DF911F910F9114
:101A3000FF90EF900895DF93CF930F92CDB7DEB76D
:101A4000198281E00E94510A81E0898389810F9087
:101A5000CF91DF910895DF93CF930F92CDB7DEB78B
:101A6000198281E00E949C0A81E0898389810F901C
:101A7000CF91DF910895DF93CF93CDB7DEB782E0AA
:101A80006FEF0E944C0783E066E041E00E944F0642
:101A900083E067E041E00E944F06CF91DF91089517
:101AA000DF93CF93CDB7DEB782E06FE00E944C07A3
:101AB00083E066E041E00E944F0683E067E041E09A
:101AC0000E944F06CF91DF910895DF93CF93CDB75A
:101AD000DEB76C970FB6F894DEBF0FBECDBF83E0C4
:101AE00067E041E00E949C0780E090E0A0E0B0E465
:101AF000898F9A8FAB8FBC8F698D7A8D8B8D9C8DE2
:101B000020E030E04AEF54E40E941F02DC01CB01E8
:101B10008D8B9E8BAF8BB88F6D897E898F89988DC9
:101B200020E030E040E85FE30E94250488232CF4A5
:101B300081E090E09C8B8B8B3FC06D897E898F8983
:101B4000988D20E03FEF4FE757E40E94C503181639
:101B50004CF5698D7A8D8B8D9C8D20E030E040E2D4
:101B600051E40E941F02DC01CB01BC01CD010E94A7
:101B70004900DC01CB019C8B8B8B0FC088EC90E083
:101B80009A8B898B89899A890197F1F79A8B898B2E
:101B90008B899C8901979C8B8B8B8B899C89009767
:101BA00069F714C06D897E898F89988D0E944900DC
:101BB000DC01CB019C8B8B8B8B899C89988B8F87CD
:101BC0008F8598890197F1F7988B8F8783E067E07D
:101BD00040E00E949C0780E090E0A0EAB0E48B87A0
:101BE0009C87AD87BE876B857C858D859E8520E033
:101BF00030E04AEF54E40E941F02DC01CB018F83E6
:101C00009887A987BA876F81788589859A8520E02A
:101C100030E040E85FE30E94250488232CF481E053
:101C200090E09E838D833FC06F81788589859A85FA
:101C300020E03FEF4FE757E40E94C50318164CF52C
:101C40006B857C858D859E8520E030E040E251E407
:101C50000E941F02DC01CB01BC01CD010E944900A2
:101C6000DC01CB019E838D830FC088EC90E09C83C8
:101C70008B838B819C810197F1F79C838B838D8172
:101C80009E8101979E838D838D819E81009769F748
:101C900014C06F81788589859A850E944900DC018E
:101CA000CB019E838D838D819E819A8389838981D7
:101CB0009A810197F1F79A8389836C960FB6F8940D
:101CC000DEBF0FBECDBFCF91DF910895DF93CF93DD
:101CD000CDB7DEB72E970FB6F894DEBF0FBECDBFDF
:101CE00080E090E0A8E4B2E48B879C87AD87BE8754
:101CF0006B857C858D859E8520E030E04AEF54E43D
:101D00000E941F02DC01CB018F839887A987BA87C5
:101D10006F81788589859A8520E030E040E85FE32F
:101D20000E94250488232CF481E090E09E838D831B
:101D30003FC06F81788589859A8520E03FEF4FE726
:101D400057E40E94C50318164CF56B857C858D857C
:101D50009E8520E030E040E251E40E941F02DC0159
:101D6000CB01BC01CD010E944900DC01CB019E8367
:101D70008D830FC088EC90E09C838B838B819C814A
:101D80000197F1F79C838B838D819E8101979E83C0
:101D90008D838D819E81009769F714C06F8178854E
:101DA00089859A850E944900DC01CB019E838D8341
:101DB0008D819E819A83898389819A810197F1F728
:101DC0009A8389838CE30E94510A2E960FB6F89469
:101DD000DEBF0FBECDBFCF91DF910895DF93CF93CC
:101DE000CDB7DEB768970FB6F894DEBF0FBECDBF94
:101DF00080E090E0A8E4B2E48D8B9E8BAF8BB88F2F
:101E00006D897E898F89988D2BEA3AEA4AE250E4FF
:101E10000E941F02DC01CB01898B9A8BAB8BBC8BA0
:101E200069897A898B899C8920E030E040E85FE30A
:101E30000E94250488231CF481E0888B91C0698965
:101E40007A898B899C8920E030E04FE753E40E9437
:101E5000C50318160CF07BC06D897E898F89988D1B
:101E600020E030E04AE754E40E941903DC01CB0192
:101E70008C879D87AE87BF876C857D858E859F8586
:101E800020E030E04AEF54E40E941F02DC01CB0165
:101E900088879987AA87BB87688579858A859B8586
:101EA00020E030E040E85FE30E94250488232CF422
:101EB00081E090E09F838E833FC0688579858A8525
:101EC0009B8520E03FEF4FE757E40E94C5031816BB
:101ED0004CF56C857D858E859F8520E030E040E265
:101EE00051E40E941F02DC01CB01BC01CD010E9424
:101EF0004900DC01CB019F838E830FC088EC90E00A
:101F00009D838C838C819D810197F1F79D838C83C8
:101F10008E819F8101979F838E838E819F81009701
:101F200069F724C0688579858A859B850E94490068
:101F3000DC01CB019F838E838E819F819B838A836B
:101F40008A819B810197F1F79B838A830FC06989FE
:101F50007A898B899C890E944900DC01CB01888B9E
:101F60008889898389818A95F1F789838EE00E9427
:101F7000510A68960FB6F894DEBF0FBECDBFCF9161
:101F8000DF910895DF93CF93CDB7DEB768970FB693
:101F9000F894DEBF0FBECDBF80E090E0A8E4B2E4CD
:101FA0008D8B9E8BAF8BB88F6D897E898F89988D35
:101FB0002BEA3AEA4AE250E40E941F02DC01CB011C
:101FC000898B9A8BAB8BBC8B69897A898B899C892D
:101FD00020E030E040E85FE30E94250488231CF401
:101FE00081E0888B91C069897A898B899C8920E0FE
:101FF00030E04FE753E40E94C50318160CF07BC095
:102000006D897E898F89988D20E030E04AE754E41D
:102010000E941903DC01CB018C879D87AE87BF87A7
:102020006C857D858E859F8520E030E04AEF54E405
:102030000E941F02DC01CB0188879987AA87BB8792
:10204000688579858A859B8520E030E040E85FE3FC
:102050000E94250488232CF481E090E09F838E83E6
:102060003FC0688579858A859B8520E03FEF4FE7F3
:1020700057E40E94C50318164CF56C857D858E8546
:102080009F8520E030E040E251E40E941F02DC0125
:10209000CB01BC01CD010E944900DC01CB019F8333
:1020A0008E830FC088EC90E09D838C838C819D8112
:1020B0000197F1F79D838C838E819F8101979F8388
:1020C0008E838E819F81009769F724C0688579850A
:1020D0008A859B850E944900DC01CB019F838E830A
:1020E0008E819F819B838A838A819B810197F1F7EF
:1020F0009B838A830FC069897A898B899C890E9416
:102100004900DC01CB01888B8889898389818A9584
:10211000F1F7898381E00E94510A68960FB6F8941E
:10212000DEBF0FBECDBFCF91DF910895DF93CF9378
:10213000CDB7DEB72E970FB6F894DEBF0FBECDBF7A
:1021400080E090E0A0E0B0E48B879C87AD87BE87FD
:102150006B857C858D859E8520E030E04AEF54E4D8
:102160000E941F02DC01CB018F839887A987BA8761
:102170006F81788589859A8520E030E040E85FE3CB
:102180000E94250488232CF481E090E09E838D83B7
:102190003FC06F81788589859A8520E03FEF4FE7C2
:1021A00057E40E94C50318164CF56B857C858D8518
:1021B0009E8520E030E040E251E40E941F02DC01F5
:1021C000CB01BC01CD010E944900DC01CB019E8303
:1021D0008D830FC088EC90E09C838B838B819C81E6
:1021E0000197F1F79C838B838D819E8101979E835C
:1021F0008D838D819E81009769F714C06F817885EA
:1022000089859A850E944900DC01CB019E838D83DC
:102210008D819E819A83898389819A810197F1F7C3
:102220009A83898386E00E94510A2E960FB6F8940D
:10223000DEBF0FBECDBFCF91DF910895DF93CF9367
:10224000CDB7DEB7A6970FB6F894DEBF0FBECDBFF1
:1022500080E090E0A8E4B2E48BA39CA3ADA3BEA36E
:102260006BA17CA18DA19EA120E030E04AEF54E457
:102270000E941F02DC01CB018F8F98A3A9A3BAA3F0
:102280006F8D78A189A19AA120E030E040E85FE35A
:102290000E94250488232CF481E090E09E8F8D8F8E
:1022A0003FC06F8D78A189A19AA120E03FEF4FE751
:1022B00057E40E94C50318164CF56BA17CA18DA1B3
:1022C0009EA120E030E040E251E40E941F02DC01C8
:1022D000CB01BC01CD010E944900DC01CB019E8FE6
:1022E0008D8F0FC088EC90E09C8F8B8F8B8D9C8D99
:1022F0000197F1F79C8F8B8F8D8D9E8D01979E8F0F
:102300008D8F8D8D9E8D009769F714C06F8D78A18C
:1023100089A19AA10E944900DC01CB019E8F8D8F7B
:102320008D8D9E8D9A8F898F898D9A8D0197F1F76A
:102330009A8F898F82E00E949C0A80E090E0A0E260
:10234000B1E48D8B9E8BAF8BB88F6D897E898F8921
:10235000988D2BEA3AEA4AE250E40E941F02DC011F
:10236000CB01898B9A8BAB8BBC8B69897A898B89E2
:102370009C8920E030E040E85FE30E942504882348
:102380001CF481E0888B91C069897A898B899C894A
:1023900020E030E04FE753E40E94C50318160CF02C
:1023A0007BC06D897E898F89988D20E030E04AE777
:1023B00054E40E941903DC01CB018C879D87AE8712
:1023C000BF876C857D858E859F8520E030E04AEF54
:1023D00054E40E941F02DC01CB0188879987AA87F9
:1023E000BB87688579858A859B8520E030E040E859
:1023F0005FE30E94250488232CF481E090E09F8312
:102400008E833FC0688579858A859B8520E03FEF74
:102410004FE757E40E94C50318164CF56C857D857F
:102420008E859F8520E030E040E251E40E941F024B
:10243000DC01CB01BC01CD010E944900DC01CB01D4
:102440009F838E830FC088EC90E09D838C838C816A
:102450009D810197F1F79D838C838E819F810197E8
:102460009F838E838E819F81009769F724C0688542
:1024700079858A859B850E944900DC01CB019F8379
:102480008E838E819F819B838A838A819B81019722
:10249000F1F79B838A830FC069897A898B899C892C
:1024A0000E944900DC01CB01888B8889898389815E
:1024B0008A95F1F7898388E20E949C0AA6960FB656
:1024C000F894DEBF0FBECDBFCF91DF910895DF93AB
:1024D000CF93CDB7DEB7E0970FB6F894DEBF0FBE4F
:1024E000CDBF80E090E0A8E4B2E48DA79EA7AFA79F
:1024F000B8AB6DA57EA58FA598A92BEA3AEA4AE26A
:1025000050E40E941F02DC01CB0189A79AA7ABA768
:10251000BCA769A57AA58BA59CA520E030E040E882
:102520005FE30E94250488231CF481E088A791C002
:1025300069A57AA58BA59CA520E030E04FE753E480
:102540000E94C50318160CF07BC06DA57EA58FA553
:1025500098A920E030E04AE754E40E941903DC0126
:10256000CB018CA39DA3AEA3BFA36CA17DA18EA123
:102570009FA120E030E04AEF54E40E941F02DC01FA
:10258000CB0188A399A3AAA3BBA368A179A18AA11F
:102590009BA120E030E040E85FE30E94250488230F
:1025A0002CF481E090E09F8F8E8F3FC068A179A1CD
:1025B0008AA19BA120E03FEF4FE757E40E94C503AB
:1025C00018164CF56CA17DA18EA19FA120E030E0F2
:1025D00040E251E40E941F02DC01CB01BC01CD01AD
:1025E0000E944900DC01CB019F8F8E8F0FC088ECC9
:1025F00090E09D8F8C8F8C8D9D8D0197F1F79D8F35
:102600008C8F8E8D9F8D01979F8F8E8F8E8D9F8D3E
:10261000009769F724C068A179A18AA19BA10E94B3
:102620004900DC01CB019F8F8E8F8E8D9F8D9B8FFC
:102630008A8F8A8D9B8D0197F1F79B8F8A8F0FC0B0
:1026400069A57AA58BA59CA50E944900DC01CB0158
:1026500088A788A5898F898D8A95F1F7898F80E071
:102660000E949C0A80E090E0A0E2B1E48D8B9E8BFA
:10267000AF8BB88F6D897E898F89988D2BEA3AEA66
:102680004AE250E40E941F02DC01CB01898B9A8B45
:10269000AB8BBC8B69897A898B899C8920E030E07F
:1026A00040E85FE30E94250488231CF481E0888BC6
:1026B00091C069897A898B899C8920E030E04FE755
:1026C00053E40E94C50318160CF07BC06D897E8907
:1026D0008F89988D20E030E04AE754E40E94190386
:1026E000DC01CB018C879D87AE87BF876C857D859C
:1026F0008E859F8520E030E04AEF54E40E941F025F
:10270000DC01CB0188879987AA87BB876885798593
:102710008A859B8520E030E040E85FE30E94250445
:1027200088232CF481E090E09F838E833FC06885EE
:1027300079858A859B8520E03FEF4FE757E40E942B
:10274000C50318164CF56C857D858E859F8520E028
:1027500030E040E251E40E941F02DC01CB01BC01E9
:10276000CD010E944900DC01CB019F838E830FC005
:1027700088EC90E09D838C838C819D810197F1F79B
:102780009D838C838E819F8101979F838E838E8111
:102790009F81009769F724C0688579858A859B8524
:1027A0000E944900DC01CB019F838E838E819F8133
:1027B0009B838A838A819B810197F1F79B838A831C
:1027C0000FC069897A898B899C890E944900DC0144
:1027D000CB01888B8889898389818A95F1F78983E0
:1027E0008CE00E949C0AE0960FB6F894DEBF0FBE04
:1027F000CDBFCF91DF910895DF93CF93CDB7DEB7F3
:10280000E0970FB6F894DEBF0FBECDBF80E090E03A
:10281000A8E4B2E48DA79EA7AFA7B8AB6DA57EA52F
:102820008FA598A92BEA3AEA4AE250E40E941F02D7
:10283000DC01CB0189A79AA7ABA7BCA769A57AA59C
:102840008BA59CA520E030E040E85FE30E942504D2
:1028500088231CF481E088A791C069A57AA58BA57F
:102860009CA520E030E04FE753E40E94C503181612
:102870000CF07BC06DA57EA58FA598A920E030E067
:102880004AE754E40E941903DC01CB018CA39DA309
:10289000AEA3BFA36CA17DA18EA19FA120E030E0DB
:1028A0004AEF54E40E941F02DC01CB0188A399A3E4
:1028B000AAA3BBA368A179A18AA19BA120E030E0D3
:1028C00040E85FE30E94250488232CF481E090E037
:1028D0009F8F8E8F3FC068A179A18AA19BA120E024
:1028E0003FEF4FE757E40E94C50318164CF56CA163
:1028F0007DA18EA19FA120E030E040E251E40E9442
:102900001F02DC01CB01BC01CD010E944900DC01AA
:10291000CB019F8F8E8F0FC088EC90E09D8F8C8FA6
:102920008C8D9D8D0197F1F79D8F8C8F8E8D9F8D56
:1029300001979F8F8E8F8E8D9F8D009769F724C092
:1029400068A179A18AA19BA10E944900DC01CB0169
:102950009F8F8E8F8E8D9F8D9B8F8A8F8A8D9B8D63
:102960000197F1F79B8F8A8F0FC069A57AA58BA578
:102970009CA50E944900DC01CB0188A788A5898F0E
:10298000898D8A95F1F7898F80E00E949C0A80E00A
:1029900090E0A0E2B1E48D8B9E8BAF8BB88F6D89F8
:1029A0007E898F89988D2BEA3AEA4AE250E40E94A8
:1029B0001F02DC01CB01898B9A8BAB8BBC8B6989A5
:1029C0007A898B899C8920E030E040E85FE30E94AF
:1029D000250488231CF481E0888B91C069897A8959
:1029E0008B899C8920E030E04FE753E40E94C503C7
:1029F00018160CF07BC06D897E898F89988D20E038
:102A000030E04AE754E40E941903DC01CB018C87D3
:102A10009D87AE87BF876C857D858E859F8520E0ED
:102A200030E04AEF54E40E941F02DC01CB018887AA
:102A30009987AA87BB87688579858A859B8520E0E9
:102A400030E040E85FE30E94250488232CF481E015
:102A500090E09F838E833FC0688579858A859B85BA
:102A600020E03FEF4FE757E40E94C50318164CF5EE
:102A70006C857D858E859F8520E030E040E251E4C5
:102A80000E941F02DC01CB01BC01CD010E94490064
:102A9000DC01CB019F838E830FC088EC90E09D8387
:102AA0008C838C819D810197F1F79D838C838E812E
:102AB0009F8101979F838E838E819F81009769F705
:102AC00024C0688579858A859B850E944900DC0140
:102AD000CB019F838E838E819F819B838A838A8192
:102AE0009B810197F1F79B838A830FC069897A895B
:102AF0008B899C890E944900DC01CB01888B8889E5
:102B0000898389818A95F1F7898381E00E949C0AF3
:102B1000E0960FB6F894DEBF0FBECDBFCF91DF9128
:102B20000895DF93CF93CDB7DEB7A6970FB6F8948D
:102B3000DEBF0FBECDBF80E090E0A0E0B0E48BA38D
:102B40009CA3ADA3BEA36BA17CA18DA19EA120E0FF
:102B500030E04AEF54E40E941F02DC01CB018F8F6A
:102B600098A3A9A3BAA36F8D78A189A19AA120E007
:102B700030E040E85FE30E94250488232CF481E0E4
:102B800090E09E8F8D8F3FC06F8D78A189A19AA113
:102B900020E03FEF4FE757E40E94C50318164CF5BD
:102BA0006BA17CA18DA19EA120E030E040E251E428
:102BB0000E941F02DC01CB01BC01CD010E94490033
:102BC000DC01CB019E8F8D8F0FC088EC90E09C8F35
:102BD0008B8F8B8D9C8D0197F1F79C8F8B8F8D8DBB
:102BE0009E8D01979E8F8D8F8D8D9E8D009769F79D
:102BF00014C06F8D78A189A19AA10E944900DC01BF
:102C0000CB019E8F8D8F8D8D9E8D9A8F898F898D13
:102C10009A8D0197F1F79A8F898F80E00E949C0A24
:102C200080E090E0A0E2B1E48D8B9E8BAF8BB88FFB
:102C30006D897E898F89988D2BEA3AEA4AE250E4C1
:102C40000E941F02DC01CB01898B9A8BAB8BBC8B62
:102C500069897A898B899C8920E030E040E85FE3CC
:102C60000E94250488231CF481E0888B91C0698927
:102C70007A898B899C8920E030E04FE753E40E94F9
:102C8000C50318160CF07BC06D897E898F89988DDD
:102C900020E030E04AE754E40E941903DC01CB0154
:102CA0008C879D87AE87BF876C857D858E859F8548
:102CB00020E030E04AEF54E40E941F02DC01CB0127
:102CC00088879987AA87BB87688579858A859B8548
:102CD00020E030E040E85FE30E94250488232CF4E4
:102CE00081E090E09F838E833FC0688579858A85E7
:102CF0009B8520E03FEF4FE757E40E94C50318167D
:102D00004CF56C857D858E859F8520E030E040E226
:102D100051E40E941F02DC01CB01BC01CD010E94E5
:102D20004900DC01CB019F838E830FC088EC90E0CB
:102D30009D838C838C819D810197F1F79D838C838A
:102D40008E819F8101979F838E838E819F810097C3
:102D500069F724C0688579858A859B850E9449002A
:102D6000DC01CB019F838E838E819F819B838A832D
:102D70008A819B810197F1F79B838A830FC06989C0
:102D80007A898B899C890E944900DC01CB01888B60
:102D90008889898389818A95F1F7898386E00E94F1
:102DA0009C0AA6960FB6F894DEBF0FBECDBFCF919A
:102DB000DF910895DF93CF930F92CDB7DEB71982DD
:102DC0000E9479170E94A81781E0898389810F905A
:102DD000CF91DF910895DF93CF9300D000D0CDB78E
:102DE000DEB78FEF8B831A8276C08A81882F90E0BE
:102DF000FC01ED58FF4F908181E0692F40E00E9477
:102E00009C07198255C08981882F90E0FC01E95800
:102E1000FF4F908181E0692F0E9476098981882F78
:102E200090E0FC01E958FF4F908181E0692F0E94FA
:102E300076098823D1F58A81482F50E08981282F8F
:102E400030E0CA01880F991F880F991F820F931FC6
:102E5000FC01E558FF4F80818B830BC08981882F4F
:102E600090E0FC01E958FF4F908181E0692F0E94BA
:102E700076098981882F90E0FC01E958FF4F908105
:102E800081E0692F0E947609882341F38A81882F87
:102E900090E0FC01ED58FF4F908181E0692F41E007
:102EA0000E949C078B818C831CC089818F5F8983E2
:102EB0008981843008F4A7CF8A81882F90E0FC01B3
:102EC000ED58FF4F908181E0692F41E00E949C07FF
:102ED0008A818F5F8A838A81843008F486CF8B81D0
:102EE0008C838C810F900F900F900F90CF91DF917A
:102EF0000895DF93CF93CDB7DEB781E060E041E086
:102F00000E944F0681E060E041E00E949C0781E062
:102F100061E041E00E944F0681E061E041E00E94F3
:102F20009C0781E062E041E00E944F0681E062E0A0
:102F300041E00E949C0781E063E041E00E944F066F
:102F400081E063E041E00E949C07CF91DF9108950A
:102F5000DF93CF93CDB7DEB781E064E040E00E941D
:102F60004F0681E064E041E00E949C0781E065E05B
:102F700040E00E944F0681E065E041E00E949C072E
:102F800081E066E040E00E944F0681E066E041E0BB
:102F90000E949C0781E067E040E00E944F0681E0CC
:102FA00067E041E00E949C07CF91DF910895DF9395
:102FB000CF93CDB7DEB728970FB6F894DEBF0FBE1C
:102FC000CDBF98878F831E821D8281E090E09C8315
:102FD0008B831A82198229813A818F819885FC011D
:102FE000E20FF31F80818D3209F040C08FEF9FEF19
:102FF0009C838B8389819A8101969A83898336C0C9
:1030000029813A818F819885FC01E20FF31F80812D
:103010008033BCF129813A818F819885FC01E20FD0
:10302000F31F80818A336CF58D819E819C01220F74
:10303000331FC901880F991F880F991FA901480FD5
:10304000591F29813A818F819885FC01E20FF31F76
:103050008081992787FD9095C097840F951F9E8347
:103060008D8389819A8101969A83898329813A8106
:103070008F819885FC01E20FF31F8081882309F07E
:10308000BFCF2B813C818D819E81AC01249FC001EB
:10309000259F900D349F900D112428960FB6F8941B
:1030A000DEBF0FBECDBFCF91DF910895DF93CF93E9
:1030B00000D00F92CDB7DEB79B838A8319820CC0F4
:1030C0008981282F30E08A819B81FC01E20FF31F68
:1030D000108289818F5F89838981282F30E08A81DE
:1030E0009B81FC01E20FF31F8081882349F70F9039
:1030F0000F900F90CF91DF910895DF93CF930F92B0
:10310000CDB7DEB78FEF898303C00E94EB168983AA
:1031100089818F3FD1F389810F90CF91DF910895FD
:10312000DF93CF93CDB7DEB76A970FB6F894DEBFC3
:103130000FBECDBF0E94DA160E94EA0A188E1F8ABF
:103140001E8A1D8A1C8A1B8A1A8A198A188A83E099
:1031500060E00E943C0C80E690E00E940E0C80E053
:1031600090E0AAEFB4E48B879C87AD87BE876B8520
:103170007C858D859E8520E030E04AEF54E40E94F6
:103180001F02DC01CB018F839887A987BA876F81E3
:10319000788589859A8520E030E040E85FE30E94E9
:1031A000250488232CF481E090E09E838D833FC02A
:1031B0006F81788589859A8520E03FEF4FE757E456
:1031C0000E94C50318164CF56B857C858D859E8500
:1031D00020E030E040E251E40E941F02DC01CB011C
:1031E000BC01CD010E944900DC01CB019E838D838F
:1031F0000FC088EC90E09C838B838B819C8101972E
:10320000F1F79C838B838D819E8101979E838D83B3
:103210008D819E81009769F714C06F8178858985BB
:103220009A850E944900DC01CB019E838D838D81AC
:103230009E819A83898389819A810197F1F79A8384
:1032400089830E942B0D0E947D188F878F85803384
:1032500018F08F858A3330F08F858D32A1F48889FC
:10326000882389F48989882F90E02F85FC01E45711
:10327000FF4F208389898F5F898B8F850E94C30AC6
:1032800081E0888BE0CF8F858B3261F08F858D3226
:1032900019F48889813031F08F858A3219F08F8551
:1032A0008F3291F48CE890E00E94D717988F8F8B23
:1032B000188A198A8CE890E00E9456188F858A8BAC
:1032C0008F850E94C30ABFCF8F858D3309F068C0F8
:1032D0008CE890E00E94D7179E8B8D8B198A8CE822
:1032E00090E00E9456188A89282F30E03A8F298F63
:1032F000498D5A8D4B325105B1F0898D9A8D8C32A2
:10330000910534F4298D3A8D2A323105F1F036C019
:10331000498D5A8D4D32510579F0898D9A8D8F32B4
:10332000910511F12BC08F89988D2D893E89820FCF
:10333000931F9C8B8B8B22C08F89988D2D893E8902
:10334000821B930B9C8B8B8B19C08F89988D2D8939
:103350003E89AC01429FC001439F900D529F900D4A
:1033600011249C8B8B8B0AC08F89988D2D893E8967
:10337000B9010E94001ACB019C8B8B8B8AE061E023
:103380000E943C0C8DE30E94C30A8B899C89AA276A
:1033900097FDA095BA2FBC01CD010E945F0C53CFC1
:1033A0008F85853409F04FCF0E942B0D8CE890E07B
:1033B0000E945618198A188E1F8A1E8A1D8A1A8A18
:1033C00042CF629FD001739FF001829FE00DF11DFB
:1033D000649FE00DF11D929FF00D839FF00D749F8F
:1033E000F00D659FF00D9927729FB00DE11DF91F3B
:1033F000639FB00DE11DF91FBD01CF011124089598
:1034000097FB092E07260AD077FD04D027D006D0D7
:1034100000201AF4709561957F4F0895F6F7909506
:1034200081959F4F089597FB092E05260ED057FDD5
:1034300004D028D00AD0001C38F45095409530951F
:1034400021953F4F4F4F5F4F0895F6F79095809528
:10345000709561957F4F8F4F9F4F0895AA1BBB1B9F
:1034600051E107C0AA1FBB1FA617B70710F0A61B84
:10347000B70B881F991F5A95A9F780959095BC01A5
:10348000CD010895A1E21A2EAA1BBB1BFD010DC0A0
:10349000AA1FBB1FEE1FFF1FA217B307E407F50704
:1034A00020F0A21BB30BE40BF50B661F771F881FE0
:1034B000991F1A9469F760957095809590959B0176
:1034C000AC01BD01CF0108952F923F924F925F92C0
:1034D0006F927F928F929F92AF92BF92CF92DF9224
:1034E000EF92FF920F931F93CF93DF93CDB7DEB789
:1034F000CA1BDB0B0FB6F894DEBF0FBECDBF09941D
:103500002A88398848885F846E847D848C849B8473
:10351000AA84B984C884DF80EE80FD800C811B8181
:10352000AA81B981CE0FD11D0FB6F894DEBF0FBEB0
:0A353000CDBFED010895F894FFCF20
:10353A0043616C63756C61746F7200000000000077
:10354A0000000000010203040506073738392F344A
:0C355A0035362A3132332D45303D2B0030
:00000001FF
